:020000040008F2
:1000000000200820815508002D100800E34B08004F
:100010002F10080031100800331008000000000005
:100020000000000000000000000000003510080083
:10003000371008000000000039100800174C0800B5
:100040003B1008003D1008003F1008004110080058
:100050004310080045100800471008004910080028
:10006000E52808004B100800534C0800A74C080076
:100070004D10080003290800FF1B0800291C080078
:100080004F100800511008003F47080053100800A7
:100090005510080057100800591008005B100800A0
:1000A0005D1008005F100800611008006310080070
:0C00B00065100800671008002B10080005
:1000BC0010B584B001A8DFF858190CC90CC0083968
:1000CC000838DFF8200D00788DF806000024DFF8E2
:1000DC00EC0BDFF8EC1B0860DFF8E00BDFF8081D19
:1000EC000860DFF8D80BDFF8041D08600020DFF88B
:1000FC00001D0870DFF8FC0C006800905FF4001025
:10010C00DFF8101908605FF40000DFF8EC1C0860E1
:10011C005FF08070DFF8E01C0860642100A800F03C
:10012C009DFF0028F9D05FF40010DFF8CC1C0860AC
:10013C00DFF8C00C006800904FF47A7100A800F052
:10014C008DFF0028F8D0DFF8AC0C00680090DFF8C9
:10015C00500D0068C00709D4E4B2002C06D14FF44E
:10016C007A7100A800F07AFF0400F0E7E4B2002CEA
:10017C0010D100F025F800F04FFC01A800F0B5FB01
:10018C008DF8080001A800F049FA4FF47A713E206E
:10019C0000F00AFB1FBD0020C82801D2401CFBE761
:1001AC005FF08070DFF86C1808600020142801D212
:1001BC00401CFBE75FF08070DFF83C1C0860704768
:1001CC00F0B58BB006A8DFF8401B112200F0B8FF89
:1001DC0000A8DFF8381B182200F0C2FF0027DFF858
:1001EC00C00C0068C00740F10B81DFF8240B0068DD
:1001FC0006000020DFF81C1B0860DFF81C0B0068F1
:10020C00C00009D5DFF8100B006830F08050DFF823
:10021C00081B0860761E15E0FFF7BDFFDFF8800CA9
:10022C00006840070ED4DFF8EC0A006842F2107147
:10023C00884207D2DFF8DC0A0068401CDFF8D41AC9
:10024C000860EBE7DFF8CC0A006842F211718842D3
:10025C0005D300F0D7F806A800F0BEFFD0E0DFF819
:10026C00400C006830F00400DFF8341C0860DFF844
:10027C00780B00680078A42840F08680DFF8980A94
:10028C00006850F08060DFF8901A0860FFF783FF79
:10029C00DFF80C0C0068C0070ED5DFF8780A006890
:1002AC0042F21071884207D2DFF8680A0068401CDD
:1002BC00DFF8601A0860EBE7DFF85C0A006830F0E2
:1002CC008060DFF8541A0860DFF8D40B006830F057
:1002DC000400DFF8CC1B0860DFF8380A006842F233
:1002EC001071884246D2DFF8280A0068861BDFF8B6
:1002FC00F80A00680078040000F09AF8DFF8E80AC1
:10030C0000680078801C0500EDB2A81C864207D05E
:10031C00DFF8040A006850F00100DFF8FC190860EF
:10032C00DFF8C40A00680078444000F081F86D1EC4
:10033C00EDB2002DF4D1DFF8B00A00680078E4B219
:10034C0084420ED1DFF8A80A0078401CDFF8A01A0E
:10035C000870DFF8A80A0068401CDFF8A01A0860D3
:10036C001BE0DFF8840A0068DFF8801A086000F0F0
:10037C0073F812E0DFF8880A0068401CDFF8801A76
:10038C0008600120070008E0DFF8780A0068401CCC
:10039C00DFF8701A086001200700FFB2002F2DD083
:1003AC0000A800F019FFDFF8F80A0068C00710D5A4
:1003BC00DFF86009006842F21071884209D2DFF858
:1003CC0054090068401CDFF84C190860FFF7E3FE85
:1003DC00E9E7DFF8EC080068DFF80C1A0860DFF8D2
:1003EC00E0080068DFF8041A0860DFF8B40A006857
:1003FC0030F00600DFF8A81A086001E000F018F8E9
:10040C000BB0F0BD72B6DFF8B408DFF8B4180860B2
:10041C00DFF8A808DFF8D0190860DFF8A008DFF8CB
:10042C00CC1908600020DFF8C819087062B6704754
:10043C00DFF8B4090068401CDFF8AC190860DFF87D
:10044C00A8090068DFF8741A884204D1DFF86C0838
:10045C00DFF8941908607047DFF890090068401CB9
:10046C00DFF888190860DFF884090068DFF84C1A97
:10047C00884204D1DFF84408DFF87019086070472F
:10048C0038B5DFF8BC0A0068C00109D5DFF8B40A3A
:10049C0000F0A2FEDFF8B00ADFF8B01A0860B6E090
:1004AC005FF40010DFF8A81A0860DFF8A80A00F063
:1004BC0093FE0020DFF8A01A08600020DFF89C1AD9
:1004CC0008600020DFF81C1908701020DFF81419E0
:1004DC0048700020DFF80C198870FF20DFF8041931
:1004EC00C870FF20DFF8FC1808710120DFF8F41841
:1004FC0048711020DFF8EC188871CD20DFF8E41873
:10050C00C8710C20DFF8DC1808723720DFF8D4181B
:10051C0048720320DFF8CC1888720420DFF8401AE8
:10052C000870DFF8400ADFF8381A48605FF4800082
:10053C00DFF82C1A88600120DFF8241A08730220D7
:10054C00DFF81C1A48730FF24530DFF8141A0861F3
:10055C000FF25130DFF8081A4861DFF86007DFF856
:10056C00001A8861DFF85807DFF8F419C8614FF4F6
:10057C008070DFF8EC190884DFF8E40901F0D4F995
:10058C00DFF8E41908600020DFF814190860FFF7A1
:10059C008FFDDFF8D8090078C00617D5DFF8D00931
:1005AC0000F01AFEDFF8CC0900F016FE00F026FE73
:1005BC00DFF8C409006830F48030DFF8BC1908603B
:1005CC000FF64500DFF88419086020E0DFF8AC096D
:1005DC0000F002FE5FF0307004005FF0F070050078
:1005EC00DFF89C090460DFF89C090460DFF89809C7
:1005FC000560DFF870090560DFF890090460DFF82A
:10060C00900905600FF61520DFF84019086031BD20
:10061C0080B5DFF838090068804701BDF0B599B0A6
:10062C000400DFF87009076810A8DFF86C192122A4
:10063C0000F086FD0AA8DFF86419152200F080FD91
:10064C0005A8DFF85C19122200F07AFD00A8DFF88B
:10065C005419112200F074FDDFF8BC06006810F08C
:10066C00406F04D010A800F0B7FD00209AE00020E5
:10067C00DFF8A01608605FF40000DFF8981308603C
:10068C00DFF81C080068C0070ED4DFF88806006885
:10069C0042F21071884207D2DFF878060068401CDD
:1006AC00DFF870160860EBE7DFF86806006842F2C6
:1006BC001171884209D35FF40000DFF83C17086021
:1006CC000AA800F089FD00206CE0FFF764FDDFF85C
:1006DC00D007006840070ED4DFF83806006842F2F5
:1006EC001071884207D2DFF82C060068401CDFF836
:1006FC0024160860EBE75FF40000DFF8FC160860D6
:10070C00DFF81006006842F21171884204D30AA87F
:10071C0000F062FD002045E0DFF8CC0600680078B0
:10072C000500EDB2A42D09D1DFF8EC05006850F0FE
:10073C008050DFF8E4150860002033E0FFF778FE06
:10074C00FFF78AFEDFF85807006830F00400DFF886
:10075C0050170860EDB2A52D20D1DFF8BC0500685C
:10076C0050F00060DFF8B01508602078C01C06005F
:10077C0022003100DFF8F007006801F079F9DFF8AA
:10078C0028180860DFF820080068002801D0012034
:10079C0008E005A800F020FD002003E000A800F010
:1007AC001BFD002019B0F0BDF0B589B004000D00A0
:1007BC0000260127DFF8DC070068009001A8DFF8AD
:1007CC00EC171A2200F0BCFCDFF828060068009039
:1007DC00DFF8CC060068C00709D5F6B2002E06D1AA
:1007EC004FF47A7100A800F039FC0600F0E7F6B27D
:1007FC00002E20D1DFF88007006830F00060DFF8B1
:10080C007817086000F0DDFA0020DFF89C1708600C
:10081C00DFF8E00500680090DFF884060068C00788
:10082C0009D4F6B2002E06D14FF47A7100A800F06C
:10083C0015FC0600F0E7F6B2002E1BD1FFF7C0FC4A
:10084C00DFF8AC050078002814D0DFF8A0050068AC
:10085C00807840280ED1DFF8940500680079E4B266
:10086C00A04207D1DFF8840500684079002801D147
:10087C000020070000F0D0F8F6B2002E02D001A83C
:10088C0000F0AAFC3800C0B209B0F0BD80B5DFF8AA
:10089C0020070068401CDFF818170860FFF77BFC86
:1008AC0001BD000080B5DFF868040068401CDFF86B
:1008BC0060140860DFF808060068401CDFF80016BA
:1008CC000860DFF8FC050068DFF8F015884204D1F9
:1008DC00DFF8F005DFF8E8150860DFF89C06006823
:1008EC00400101D5FFF757FC01BD10B40100087899
:1008FC00821CA5200023DBB2D2B2934204D20C7826
:10090C006040491C5B1CF6E7C0B210BC70472DE977
:10091C00F0418AB00400002600A8DFF898162822BF
:10092C0000F01EFCDFF890060068401CDFF888160B
:10093C0008601C2001F04AFC0700002F04D100A81D
:10094C0000F04AFC002043E02078C01C0500002089
:10095C00C0B2EDB2A84206D2C0B2015DC0B2C2199B
:10096C001171401CF4E7DFF88C040068386000203B
:10097C00B861DFF8E805006800280AD1DFF8DC056B
:10098C000760DFF838060068401CDFF83016086096
:10099C001DE0DFF8C80500688046D8F8180000286C
:1009AC0003D0D8F81880761CF7E7F6B2202E09D2BF
:1009BC00C8F81870DFF804060068401CDFF8FC1556
:1009CC00086004E000A800F007FC002000E0012013
:1009DC000AB0BDE8F08110B5DFF87C05006800288E
:1009EC0014D0DFF8740500680400DFF86C050068AB
:1009FC000069DFF864150860200001F03FFCDFF8A7
:100A0C00C0050068401EDFF8B815086010BD000076
:100A1C008C550800340E0E4030B585B0DFF8D0038D
:100A2C000078002801D1012046E1DFF89805006824
:100A3C00401CDFF890150860DFF8B4030078401E06
:100A4C00DFF8AC130870FFF707FDDFF8A0030068B0
:100A5C0000780400E4B2122C01DB01202CE100250B
:100A6C00EDB2E4B2E01C85420ADADFF880030068DC
:100A7C00007800A9EDB26854FFF7EEFC6D1CEFE7AF
:100A8C009DF801003E2800F0F58040280CD04E283F
:100A9C0000F0E2804F2800F0D280522800F0E9806C
:100AAC006F2800F0FB8000E19DF80300012859D06D
:100ABC009DF8030041282DD0422826D04B2802D087
:100ACC004C2815D034E0DFF8000500F085FBDFF88A
:100ADC00A804006850F40020DFF89C140860DFF8CC
:100AEC009804006830F48020DFF88C14086023E050
:100AFC00DFF8D80400F070FBDFF87C04006830F4F9
:100B0C00C010DFF87414086016E0DFF8C40400F0BD
:100B1C0063FB11E0DFF8BC0400F05EFBDFF8580467
:100B2C000068DFF8B4140840DFF84C14086003E0E8
:100B3C00DFF8A80400F050FB9DF80400002804D155
:100B4C00DFF82C0400F048FB78E0DFF8940400F0A8
:100B5C0043FBDFF82404006850F00200DFF818149F
:100B6C0008606BE09DF8040000280ED001284CD0E2
:100B7C0002280BD0032830D0052836D0062840D0C8
:100B8C00072846D0082824D050E057E0DFF854045A
:100B9C000078401CDFF84C140870DFF8480400782B
:100BAC00002812D1DFF840040078401CDFF838141C
:100BBC000870DFF834040078002806D1DFF82C0424
:100BCC000078401CDFF824140870022000F07AF83A
:100BDC0034E0082000F076F830E0824840781028A5
:100BEC0002D1032000F06EF828E0DFF88C030068D7
:100BFC0050F08070DFF880130860052000F062F878
:100C0C001CE0062000F05EF818E0012000F05AF815
:100C1C0014E0DFF8DC0300F0DFFADFF85C030068B7
:100C2C0030F4C010DFF85013086007E0DFF8480319
:100C3C00006850F00400DFF8401308603BE00DF151
:100C4C000301012000F06AF866484078002802D1C0
:100C5C00002000F037F82EE00DF10301012000F028
:100C6C005DF860484078002802D1002000F02AF896
:100C7C0021E020E00020C0B20A2808DA00A9C0B2A6
:100C8C0041188978BB4AC0B28154401CF3E7B7487D
:100C9C00006850F01000B54908600CE0B6480068D8
:100CAC0050F48030B449086005E0B348006850F057
:100CBC000800B1490860002005B030BD8414002044
:100CCC003C1A00201CB50400FF208DF800008DF8A4
:100CDC000140FF208DF80200FF208DF80300FF205B
:100CEC008DF80400C14800788DF80500BE480078E6
:100CFC008DF80600BB4800788DF8070000A902208B
:100D0C0000F00CF813BD000098540800D8530800EC
:100D1C00281A00201C1A0020101A00202DE9F0417E
:100D2C008CB004000D005FF0000800A8B1492B2224
:100D3C0000F006FA142001F049FA0600002E04D146
:100D4C0000A800F049FA002038E00020C0B20828C2
:100D5C0006DAC0B2415DC0B282195171401CF5E790
:100D6C002448006830603471002030617A48006893
:100D7C00002807D17848066091480068401C9049CB
:100D8C0008601AE07448006807003869002803D02E
:100D9C003F6918F10108F8E75FFA88F8B8F1200FFD
:100DAC0006D23E6186480068401C8549086004E014
:100DBC0000A800F011FA002000E001200CB0BDE802
:100DCC00F08110B56548006800280AD063480068B7
:100DDC00040062480068806960490860200001F0E6
:100DEC004DFA10BDE8190020401A0020441A0020CA
:100DFC00601B0020B81A0020300E0E40581A00203C
:100E0C002C1A0020301A002070B5012400255A48F5
:100E1C000068000420D0784800F0DEF96D1C002634
:100E2C00F6B2042E12DA5448006820420BD07348F4
:100E3C00EDB2142101FB050000F0CEF94E4800681C
:100E4C00A0434D4908606400761CE9E74A480068F5
:100E5C00000C000448490860FFF7DEFD10480068EC
:100E6C00C00704D50FF23D003849086016E04E4823
:100E7C000068002812D13948006800280ED0374885
:100E8C000068001DFFF7CAFB002807D05C4800680B
:100E9C005C4908600FF231002C49086070BD0000FD
:100EAC00E41A002080B558480068401C5649086078
:100EBC00FFF786F955482549086001BD84150020C7
:100ECC003C1A00208414002010B53748006801F04B
:100EDC0015FA0400E4B22000001F01282ED8FFF7F9
:100EEC0070FF0020304908602348006830F0006033
:100EFC002149086046480068C0070BD54148006886
:100F0C0042F21071884205D23E480068401C3D49AF
:100F1C000860EFE73F48006842F21171884209D33C
:100F2C003D4800F059F93A480068C00702D5FFF770
:100F3C0032F9F8E7354805490860FFE710BD0000B5
:100F4C00A01A00203803002029100800181A0020CD
:100F5C00100E0E40F0040020141A00204C1A002031
:100F6C00E0180020000E0E40381A0020A41A0020B1
:100F7C0010060020F4190020101A00203C04002058
:100F8C00040C0E40000C0E40040E0E40140C0E40CF
:100F9C00140E0E40BC1A00208C510800F0530800AF
:100FAC00AC540800C0540800341A002060530800E8
:100FBC00241A00203C510800601A0020501A00200E
:100FCC00481A00205C1A0020A4050020900500207F
:100FDC0068050020D8040020FEFFE3FFBC040020BD
:100FEC0018060020631B0020621B0020611B0020E0
:100FFC00D454080010510800F405002060020020B1
:10100C00B81A0020201A0020541A0020150E0800CF
:10101C00E41A00201C1A00205C0400207047FEE734
:10102C00FEE7FEE7FEE7FEE7FEE7FEE7FEE7FEE78C
:10103C00FEE7FEE7FEE7FEE7FEE7FEE7FEE7FEE77C
:10104C00FEE7FEE7FEE7FEE7FEE7FEE7FEE7FEE76C
:10105C00FEE7FEE7FEE7FEE7FEE7FEE710B4020060
:10106C00354800681468A04205D3334800681468FA
:10107C00001B030007E05FF0FF301468001B2E4CD0
:10108C002468201803008B4201D2002000E00120CC
:10109C0010BC70470100FF20C9B20A2903DA11F114
:1010AC003002100008E0C9B20A2905DBC9B21029C8
:1010BC0002DA11F137021000C0B270472DE9FE437D
:1010CC0004000D0000260027DFF870800020C0B25D
:1010DC000A281BDAB4FBF8F189465FFA89F9B9F1F1
:1010EC00000F01D001210E00F6B2002E05D019F12F
:1010FC00300100AAFFB2B9547F1CB4FBF8F108FB15
:10110C0011440A21B8FBF1F8401CE0E7F6B2002EBE
:10111C0004D10120070030208DF80000002000A928
:10112C00FFB2785400A9280001F036FA3800C0B29A
:10113C00BDE8FE8300000000B81A002000CA9A3BEC
:10114C0062B38B0708D0521E11F8013B00F8013B2B
:10115C0000F024808B07F6D1830740F0208000BF7D
:10116C00103A07D330B4B1E83810103AA0E8381070
:10117C00F9D230BC530724BFB1E80810A0E808101E
:10118C0044BF51F8043B40F8043BD20724BF31F86C
:10119C00022B20F8022B44BF0B7803707047083ADF
:1011AC0007D3B1E80810083A40F8043B40F804CBE8
:1011BC00F7D25307E4E750F8041B61B150F8042B45
:1011CC00D30744BFA9F101039A18002342F8043B4A
:1011DC00091FFAD1EFE7704770B50400250000260F
:1011EC002878002802D0761C6D1CF9E7220031000B
:1011FC00DFF87806006801F0BBFA70BD80B5DFF847
:10120C0070060088ADF8000000AA0221DFF85C0629
:10121C00006801F0ADFA01BD2DE9FE430400002584
:10122C000026DFF850860020C0B20A2819DAB4FB79
:10123C00F8F1303100AAC0B2815400A9C0B2415CAF
:10124C00302901D001210D00EDB2002D00D0761C0B
:10125C00B4FBF8F108FB11440A21B8FBF1F8401C6F
:10126C00E2E7EDB2002D01D101200600F6B230000C
:10127C0000F0ACFF8146B9F1000F08D10220DFF875
:10128C00F81508700FF2B150DFF8F015086009205E
:10129C0007003000C0B2002809D000A9795CC0B2A8
:1012AC0010EB090202F8011C7F1E401EF2E74A46B1
:1012BC00F6B23100DFF8B405006801F059FA48467F
:1012CC0000F0DCFFBDE8F78370B5A4B000A8DFF830
:1012DC00B8150522FFF734FF11A8DFF8B015482226
:1012EC00FFF73EFF0124012502A8DFF8A4153C22DC
:1012FC00FFF736FF11A8FFF76FFF0026F6B2062E98
:10130C0012DADFF89005006804420AD100200500CB
:10131C0002A8F6B20A2101FB0600FFF75DFFFFF7FA
:10132C006DFF6400761CE9E7EDB2002D02D000A839
:10133C00FFF752FFFFF762FF24B070BD00B585B018
:10134C00002080B2802806D20021DFF84C2580B224
:10135C008154401CF5E70020DFF8241508700020AC
:10136C00C0B2802806DA0021DFF81825C0B28154FB
:10137C00401CF5E7DFF82005DFF820150860DFF8E2
:10138C001805DFF81C150860DFF81805DFF81815CC
:10139C00086002208DF80000DFF8FC040190DFF8F3
:1013AC00000502908020ADF802000FF25900039066
:1013BC0000A801F029F9DFF8B4140860DFF8AC04D8
:1013CC000068002805D10FF27140DFF8B0140860F6
:1013DC0010E0DFF8D804FFF7FFFEDFF8B804006870
:1013EC0050F00400DFF8AC1408600FF25D20DFF859
:1013FC008C14086005B000BD80B5DFF8800400686F
:10140C00804701BDDFF898040068401CDFF8901499
:10141C000860DFF88C040068DFF89414884204D16B
:10142C00DFF87404DFF878140860704710B592B0D8
:10143C000AA8DFF880141922FFF782FE3A208DF8F3
:10144C00020020208DF803000A208DF824000D20C6
:10145C008DF8250000208DF826000AA8FFF7BCFEA9
:10146C000024E4B2082C2CDAE4B20A2C07DBE4B238
:10147C000A2094FBF0F030308DF8000002E03020B0
:10148C008DF80000E4B20A2094FBF0F100FB11404F
:10149C0030308DF801000020C0B220280CDADFF8C3
:1014AC001814E4B251F83410C0B2415C00AAC0B2B6
:1014BC0082181171401CEFE700A8FFF78DFE641C29
:1014CC00CFE7FFF79BFE12B010BD10B584B000A89B
:1014DC00DFF8E8131CC91CC00C390C3800A8FFF746
:1014EC007BFE1FBD10B584B000A8DFF8D4131CC957
:1014FC001CC00C390C3800A8FFF76EFEDFF8C403D3
:10150C000078C0070CD5DFF8BC0300684008400029
:10151C00DFF8B0130860DFF8B003FFF75DFE3BE0C7
:10152C00DFF8A003006850F00100DFF898130860A2
:10153C00DFF89803FFF750FE002001F00BFB0120B1
:10154C0001F008FB022001F005FB032001F002FB77
:10155C00042001F0FFFA052001F0FCFA062001F04E
:10156C00F9FA072001F0F6FA002001F0F3FA012055
:10157C0001F0F0FA022001F0EDFA032001F0EAFA92
:10158C00042001F0E7FA052001F0E4FA062001F04E
:10159C00E1FA072001F0DEFA1FBD10B50400E4B239
:1015AC00572C02D1002001F030FBE4B2502C02D1B8
:1015BC00012001F02AFBE4B2422C02D1022001F0FE
:1015CC0024FBE4B2432C02D1032001F01EFBE4B255
:1015DC00472C02D1042001F018FBE4B2592C02D1A3
:1015EC00052001F012FBE4B24F2C02D1062001F0D1
:1015FC000CFBE4B2522C02D1072001F006FB10BD0B
:10160C0000B589B000A8B2492322FFF799FD00A8C4
:10161C00FFF7E2FDAB480078C00709D5A948006880
:10162C0040084000A7490860A748FFF7D5FD08E02F
:10163C00A448006850F00100A2490860A348FFF7D5
:10164C00CBFD09B000BD000038B5002493480068FC
:10165C0093490968884200F07F80E4B2002C7BD16A
:10166C008E4800680078050096480078C00703D5BE
:10167C002800C0B2FFF791FFEDB22800082802D075
:10168C000D2821D026E07E480078002809D07C481F
:10169C000078401E7A49087000207A49784A1278FE
:1016AC005054814800687F49884209D07E480068C0
:1016BC00401E7D49086087480088401E8549088087
:1016CC008548FFF789FD38E0012004000FF29D00EA
:1016DC006A4908606A480078802808DA69486849CD
:1016EC0009780D5466480078401C6549087029003B
:1016FC00C9B25E48006801F023F86B4800680570B9
:10170C0069480068401C6849086072480088401CA1
:10171C007049088064480068704988420DD3EDB266
:10172C000D2D0AD05F486049086000206949088087
:10173C006B48FFF751FD6B49086058480068401C26
:10174C00564908605548006859498842FFF47EAFF5
:10175C0051485249086079E762480068002803D074
:10176C006048006800F0CAFD31BD000070B501246E
:10177C00002005004B48EDB2285C5B49EDB2695C7A
:10178C00884201D0002004006D1CE4B2002C02D071
:10179C00EDB2042DEEDBE4B2002C2ED000200400C0
:1017AC004048EDB22856303806006D1C76B2002E3B
:1017BC0023D476B20A2E20DA0A2000FB06F04B491D
:1017CC0008703848EDB22856303806006D1C76B2D9
:1017DC00002E12D476B20A2E0FDA44480078301854
:1017EC004249087041480078082806DA2D48EDB2C5
:1017FC00285C0D2801D101200400E4B2002C04D097
:10180C000FF21D001D49086005E03948FFF7E4FCA4
:10181C0038481A49086023482349086070BD000005
:10182C0080B534481549086023483049097810EBD5
:10183C00C1004068804701BD80B52248006850F067
:10184C000040204908602C48FFF7C6FC0A48007885
:10185C00FFF7E2FCFFF7D2FC00201E49088011487C
:10186C001149086023480549086001BD841A00200D
:10187C001A2F080000CA9A3B661B0020801A002011
:10188C00651B002084160020BC5508008C500800F5
:10189C00D4500800A41A002004170020901A00202D
:1018AC008C1A002004180020941A0020B00200208A
:1018BC00841700207C53080078030020445508004E
:1018CC00505508007C1A00204006002038060020E5
:1018DC00D0520800541B0020480600204418002059
:1018EC007C040020881A002028060020671B00209A
:1018FC00CC0500205516080008050020012110F029
:10190C001F029140DFF8502840B2430942F82310DF
:10191C007047012110F01F029140DFF8402840B2BF
:10192C00430942F8231070472DE9F0470400207852
:10193C00022804D034D3042821D010D330E0DFF8AF
:10194C002008050050200600DFF8180807000820C2
:10195C0080467FF0080081461A20824622E0DFF89C
:10196C000808050060200600DFF8000807000020CA
:10197C0080465FF0FF3081463020824612E0DFF86F
:10198C00F007050050200600DFF8E80707005FF4B9
:10199C00002080465FF0FF3081460020824601E047
:1019AC00002063E02869C00201D500205EE0DFF86A
:1019BC00C8070068012195F9262091400843DFF8FB
:1019CC00B817086060686860A068A860207B2873FE
:1019DC00607B6873206968616069A861A069E861CF
:1019EC00E0692862208CA884286950F48010286152
:1019FC0028680660286847602868C0F8088028684E
:101A0C00C0F80C902868C0F820A0687B01281BD176
:101A1C00A0692968C1F80001A069401C2968C1F8B7
:101A2C00100101202968C1F8040101202968C1F8BE
:101A3C0014010020286240F201102968C1F820012D
:101A4C005FF4002029688860687B022803D1DFF8E6
:101A5C002C072968886095F9260040B2FFF759FFDA
:101A6C0095F9260040B2FFF749FF2800BDE8F08742
:101A7C00F8B504000D0016003200290014F12800FE
:101A8C0000F058FC0700002F01D1002007E0DFF820
:101A9C00F4060068002801D500F087F83800F2BD84
:101AAC0070B5DFF8E806DFF8B81608600020DFF83C
:101ABC00B01648600020DFF8A81688620020DFF816
:101ACC00A016C8610020DFF8981688840020DFF883
:101ADC00901608620020DFF8881608610D20DFF8E8
:101AEC00801681F82600DFF8A806DFF87C1608605F
:101AFC000020DFF8741648600020DFF86C1688624E
:101B0C000020DFF86416C8610020DFF85C168884BA
:101B1C000020DFF8541608620020DFF84C1608612C
:101B2C000E20DFF8441681F82600DFF86806DFF88F
:101B3C00401608600020DFF8381648600020DFF8F7
:101B4C00301688620020DFF82816C8610020DFF804
:101B5C00201688840020DFF8181608620020DFF8B1
:101B6C00101608610F20DFF8081681F82600DFF840
:101B7C00F005DFF8241608608024FF25DFF80866DE
:101B8C002A002100300001F08FF90FF20D40DFF830
:101B9C00F0150860DFF80406FFF71EFB70BD80B57A
:101BAC00DFF8DC050068804701BD80B5DFF8F00583
:101BBC00006850F00100DFF8E8150860DFF8A005B8
:101BCC00DFF8D4150860DFF8D8050078C0070FD50A
:101BDC00DFF8AC0500688047DFF8C8050068DFF85F
:101BEC00C81508600121DFF8C005FFF737FAEAE7EE
:101BFC0001BD80B5DFF87005DFF8B0150860DFF8BF
:101C0C00B405DFF8AC150860DFF8AC050068401CC3
:101C1C00DFF8A415086000F016F801BD80B5DFF8F8
:101C2C005005DFF888150860DFF89005DFF880159F
:101C3C000860DFF88C050068401CDFF8841508602C
:101C4C0000F001F801BD70B5DFF8600500680068B0
:101C5C0040690600DFF8540500680068006900035D
:101C6C0038D5300336D5DFF8440500684068C06BC2
:101C7C00DFF8381509688968084214D1DFF8300597
:101C8C000068006850F00100DFF82415096808604E
:101C9C00DFF81C050068006830F00600DFF810154E
:101CAC000968086016E0DFF808050068006840085D
:101CBC004000DFF8FC1409680860DFF8F0040068E5
:101CCC00407B012806D10120DFF8E014096809687F
:101CDC00C1F80401DFF8D4040068006800698005CD
:101CEC0070D5B0056ED5DFF8C4040068C06A401E1C
:101CFC00DFF8B8140968C862DFF8B004006800683F
:101D0C0080690400DFF8A4040068C06A002825D0AC
:101D1C00DFF898040068006B401CDFF89014096829
:101D2C000863DFF888040068006B00780400DFF8B3
:101D3C007C040068007B012803D194FAA4F0000E07
:101D4C0004002000C0B2DFF8641409680968C86197
:101D5C00DFF8580400684069804733E04FF40070A6
:101D6C00DFF8481409680968C860DFF840040068A7
:101D7C00006930F40010DFF834140968086104219C
:101D8C00DFF828040068806A006800F0B9FBDFF80F
:101D9C001C040068283000F04AFB0120DFF80C140A
:101DAC00096809688860DFF808040068006850F06A
:101DBC000200DFF8FC1309680860DFF8F003006824
:101DCC0040698047DFF8E403006800680069C007D9
:101DDC0037D5DFF8D803006800684069C00730D5F4
:101DEC00DFF8C803006800688069C0B20400DFF83F
:101DFC00BC030068007B012803D194FAA4F0000E08
:101E0C0004002000C0B2FF2806D1DFF8B803006838
:101E1C00401CDFF8B0130860DFF890030068006A1C
:101E2C0000680470DFF888030068006850F0040054
:101E3C00DFF87C1309680860DFF8700300688069BC
:101E4C008047DFF86803006800680069000762D506
:101E5C00300760D5DFF854030068407B00282BD195
:101E6C000421DFF848030068806A006800F048FB32
:101E7C00DFF838030068283000F0D9FADFF82C03BB
:101E8C000068006930F48000DFF8201309680861ED
:101E9C00DFF8180300688068C4490968496808635A
:101EAC000220C24909680968C1F820010820BF490D
:101EBC0009680968C8602EE0BD480068006850F0E9
:101ECC000400BB4909680860B84800680068D0F88D
:101EDC001001401CB54909680968C1F81001B348E4
:101EEC0000680068D0F80001B0490968C969AF4AB8
:101EFC001268928C5118884207D1AC480068C069AE
:101F0C00AA4909680968C1F800010120A7490968B4
:101F1C000968C1F81401A548006800680069C0068A
:101F2C0039D5F00637D50421A0480068806A0068CE
:101F3C0000F0E6FA9D480068283000F078FA9B48DB
:101F4C000068006930F400109849096808614FF482
:101F5C000070964909680968C1F82001102093495E
:101F6C0009680968C860002005009048006800688E
:101F7C004069800503D4642D01D26D1CF5E78B48B4
:101F8C000068407B002806D1884800688068874933
:101F9C0009684968086370BD10B57F480068806A9D
:101FAC00002800F0B5807C480068006910F4C00F70
:101FBC0040F0AE8078480068407B002806D1764817
:101FCC000068806874490968496848637248006809
:101FDC00806A08306C4988422CD103216E48006815
:101FEC00806A006800F08CFA6B480068006950F455
:101FFC00800069490968086167480068806A083090
:10200C00654909680968C1F8000163480068806A7D
:10201C004068614909680968C1F8040108205E49F3
:10202C0009680968886001205B4909680968C1F87A
:10203C0020016DE0022158480068806A006800F0B9
:10204C005FFA55480068006950F40010524909685D
:10205C00086151480068407B02283BD14E4800681B
:10206C00806A40684C490968C8624B480068806ABD
:10207C00083049490968086347480068006B0078D4
:10208C00040045480068007B012803D194FAA4F0B1
:10209C00000E0400082040490968096808604020C7
:1020AC003D490968096808602000C0B23A490968CE
:1020BC000968C8610120384909680968C8604FF48B
:1020CC0000703549096809688860334800684069C0
:1020DC0080471DE030480068806A08302E49096846
:1020EC000968C1F808012C480068806A40682A49D0
:1020FC0009680968C1F80C011020274909680968AA
:10210C0088604FF48070244909680968C1F820017F
:10211C002148006890F826000D2804D015D30F280C
:10212C0009D004D311E010481B49086013E0104893
:10213C00194908600FE00A481749086018480068F8
:10214C00400840001649086005E01F48FFF744F8B6
:10215C0003481149086010BD00E100E080E200E096
:10216C0044180020C008400078180020CE18450004
:10217C00AC180020FF18410010040E4001000800AC
:10218C00E81A0020A01A0020841700200000094043
:10219C000040094000800940F41A00203805002056
:1021AC00F01A0020B81A0020EC1A0020F81A0020AF
:1021BC00FC1A0020E01A0020001B0020E41A00206A
:1021CC00041B0020081B00205005002070B505469C
:1021DC0005F10F00C408E400C046C046A54232D247
:1021EC00082C04D2082402E0083000F047F82248FA
:1021FC00026811000CD1011D0A6802B31368A342D6
:10220C0038BF111DF8D310E01D68A5420DD2191D61
:10221C000B68002BF8D11268011D00E0191D0B682A
:10222C0093420CD01D68A542F8D361B10D682A68A1
:10223C00A2F10803A3420AD26A680A600FE000F018
:10224C0067FE0028D0D1C046C046002070BD63197F
:10225C000B60121B6E685E600B681A602C6009685C
:10226C0000291DBF4A68002A091D00210160C046D3
:10227C00C04605F1080070BD081A002000B970476F
:10228C0038B5A0F108042068082833D310F0070FE4
:10229C0030D1C046C0461848416809B18C4203D2BF
:1022AC006160446017E019464B680BB1A342FAD346
:1022BC000B685D18AC421BD3A54204D12268D2181E
:1022CC000A600C4607E04A681AB123681B199A4247
:1022DC000ED362604C60616851B1226813198B4255
:1022EC0006D100230360086880182060486860608D
:1022FC00C046C04631BD0000081A00200100FF2076
:10230C009A4A13688B4204D0994B9A4201D00C32F2
:10231C00F7E7974B9A420BD013791800C0B20428F8
:10232C0002D0C0B2052803D100231360002313711F
:10233C00C0B270472DE9F84F04000D001600AB46F3
:10234C005FF000098B480078102807D18A48006894
:10235C0050F0010088490860002066E0BBF1000FD6
:10236C0062D084480078401C82490870814800780B
:10237C000E2806DB8048006850F002007E49086099
:10238C0005E07D48006830F002007B4908607B481E
:10239C0082469AF80000002802D11AF1900AF8E758
:1023AC0000208AF800001AF104000700BBF1810F2D
:1023BC0004D380208146BBF1800B02E0D94600207B
:1023CC0083466F4800683860C7F804900020C7F84F
:1023DC00880000207968884205D23178C2191172C0
:1023EC00761C401CF6E72068002801D127600AE023
:1023FC0020688046D8F88800002802D0D8F8888059
:10240C00F8E7C8F888705E48006800F087F85C4808
:10241C000068401C5A4908605948006800289DD142
:10242C0001205749086099E73868BDE8F28F0268C7
:10243C00002A06D1504A126852F004024E4B1A6020
:10244C001FE04E4A11000A1D03689A4204D04D4AFF
:10245C00914201D09031F6E74A4A914206D1464A60
:10246C00126852F00802444B1A600AE00268D2F873
:10247C008820026001220A703E4A1278521E3D4B9F
:10248C001A70704700203B49087001203C490860D5
:10249C00002080B2102808DA0121384A80B290233B
:1024AC0003FB00221170401CF3E7002080B240288F
:1024BC0016DA00212D4A80B20C2303FB0022116096
:1024CC0000212A4A80B20C2303FB00221171002147
:1024DC00264A80B20C2303FB00229160401CE5E7E6
:1024EC002248294908600020234908600FF2610046
:1024FC0026490860704780B524480068804701BDB4
:10250C001A4A1368834204D0194B9A4201D00C32F8
:10251C00F7E7174B9A4200D0117170471A490968B6
:10252C0008600121184A1268117119490968164A84
:10253C0012689160144909680C31134A11601249F0
:10254C0009680B4A914202D108490F4A1160704741
:10255C0010480068401E0F4908600E4800680028AB
:10256C0003D14FF47A700B4908607047600F00205C
:10257C0060120020681B0020A81A002060060020B2
:10258C00B01A0020600F0020B41A0020AC1A0020F2
:10259C00B81A00204C0600205FEA000C830706D016
:1025AC0011F8013B00F8013BB3B18307F8D10A687D
:1025BC00B2F1013323EA020313F0803F02BF40F86B
:1025CC00042B51F8042FF3E711F8013B00F8013B01
:1025DC0013B111F8013BF9E760467047012110F087
:1025EC001F029140DFF8FC2440B2430942F823104B
:1025FC007047012110F01F029140DFF8EC2440B22B
:10260C00430942F8231070472DE9F0470400207865
:10261C00012806D046D3032823D012D3042830D067
:10262C0040E0DFF8C804050050200600DFF8C004C5
:10263C000700002080465FF0FF3081461A2082465A
:10264C0032E0DFF8B004050050200600DFF8A004EB
:10265C000700082080467FF0080081461A20824639
:10266C0022E0DFF89404050060200600DFF88C04FB
:10267C000700002080465FF0FF3081463020824604
:10268C0012E0DFF87C04050050200600DFF874042B
:10269C0007005FF4002080465FF0FF308146002089
:1026AC00824601E0002049E02879C00701D50020CE
:1026BC0044E0DFF854040068012195F92220914090
:1026CC000843DFF8441408606068686160882884F7
:1026DC00A068A861E068E861686850F00100686073
:1026EC0028680660286847602868C0F80880286851
:1026FC00C0F80C902868C0F820A060682968C1F860
:10270C0000016068401C2968C1F81001012029688B
:10271C00C1F8040101202968C1F8140140F201102C
:10272C002968C1F8200195F9220040B2FFF761FF3A
:10273C0095F9220040B2FFF751FF2800BDE8F08761
:10274C0070B582B004000D008DF8005000AA012174
:10275C0014F10800FFF7EEFD0600002E06D0DFF89E
:10276C00B0030068002801D500F09BF8300076BD5E
:10277C00F8B504000D0016003200290014F1080011
:10278C00FFF7D8FD0700002F06D0DFF884030068A0
:10279C00002801D500F085F83800F2BD0020DFF8E4
:1027AC0074130860DFF87003DFF840130860002032
:1027BC00DFF8381388600020DFF830134861002000
:1027CC00DFF8281308840020DFF82013886100202C
:1027DC00DFF8181348600820DFF8101381F8220086
:1027EC00DFF83803DFF80C1308600020DFF804135F
:1027FC0088600020DFF8FC1248610020DFF8F4123A
:10280C0008840020DFF8EC1288610020DFF8E41265
:10281C0048600D20DFF8DC1281F82200DFF800039D
:10282C00DFF8D41208600020DFF8CC12886000209A
:10283C00DFF8C41248610020DFF8BC1208840020C5
:10284C00DFF8B41288610020DFF8AC1248600E206B
:10285C00DFF8A41281F82200DFF8C802DFF8A0121A
:10286C0008600020A64988600020A5494861002026
:10287C00A34908840020A24988610020A04948602F
:10288C000F209F4981F822009848A74908600FF251
:10289C007D109E490860704780B59C480068804751
:1028AC0001BD80B59B48006850F001009949086053
:1028BC008E489D49086097480078C0070BD593480F
:1028CC000068804799480068994908600121984838
:1028DC00FEF7C4FBEFE701BD80B58448954908605D
:1028EC0095489649086096480068401C94490860D1
:1028FC0000F010F801BD80B57E488E490860914803
:10290C008E49086090480068401C8F49086000F0B0
:10291C0001F801BD80B587480068006800690007B0
:10292C0038D58448006800684069000732D5834870
:10293C000068006850F002008049096808607D4812
:10294C0000680068D0F81001401C7A4909680968D1
:10295C00C1F81001774800680068D0F8100175497B
:10296C0009684969734A1268128C5118884207D158
:10297C007048006840696F4909680968C1F810011E
:10298C006C480068C069804701206A490968096879
:10299C00C1F814016748006800680069C00632D5A8
:1029AC006448006800684069C0062CD50421614861
:1029BC00006880680068FFF7A3FD5E480068083077
:1029CC00FFF735FD5B480068406830F4001059494A
:1029DC00096848604FF40070564909680968C1F8E5
:1029EC0020011020534909680968C86057480078CD
:1029FC00002805D055480078401E5449087002E064
:102A0C005348FEF7E9FB01BD0000000080B54648C5
:102A1C0000688068002836D043480068406880020F
:102A2C0031D402214048006880680068FFF768FDD7
:102A3C003D480068406850F400103B490968486004
:102A4C003948006880680830374909680968C1F856
:102A5C00080135480068806840683349096809688E
:102A6C00C1F80C01102030490968096888603748A2
:102A7C000078401C354908704FF480702A49096869
:102A8C000968C1F820012848006890F8220008283D
:102A9C0006D00D2808D00E280AD00F280CD01DE027
:102AAC001448214908601CE013481F49086018E0CD
:102ABC0013481D49086014E00C481B490860144871
:102ACC000068002809D521480078002805D1114854
:102ADC000068400840000F49086002E003481249B2
:102AEC00086001BD00E100E080E200E00419002074
:102AFC00C0084000281900204C190020CE184500B1
:102B0C0070190020FF18410010040E40141B002007
:102B1C00A01A00201C1B002000060E4000000940DB
:102B2C000040094000800940201B0020B81A0020FA
:102B3C00181B0020241B00200C1B0020281B00202D
:102B4C002C1B0020101B0020301B00206C1B0020B5
:102B5C004053080010B4DFF83023C0B20A2303FB43
:102B6C000022D279012A0CD1DFF82023DFF81833A8
:102B7C00C0B20A2404FB00331B7A12EB830211004F
:102B8C0009E0C34AC04BC0B20A2404FB00331B7AD1
:102B9C0012EB83021100BF4AC0B252F820200A6027
:102BAC000022B94BC0B20A2404FB00331A7010BCCB
:102BBC00704710B4B44AC0B20A2303FB0022D27986
:102BCC00012A0AD1B24AB04BC0B20A2404FB00332A
:102BDC001B7A12EB8302110009E0AC4AAA4BC0B27B
:102BEC000A2404FB00331B7A12EB83021100A94A5E
:102BFC00C0B252F820200A600022A34BC0B20A24B3
:102C0C0004FB00331A7010BC7047A3499E4AC0B233
:102C1C000A2303FB0022127A11EB82010A689D4BF6
:102C2C00C0B253F820305A400A60704710B40222E8
:102C3C00954BC0B20A2404FB00331A70924AC0B2FE
:102C4C000A2303FB002251808F4AC0B20A2303FBE4
:102C5C000022918010BC70472DE9F04182B04FF4F6
:102C6C007A644FF4FA75601B1421B0FBF1F614274B
:102C7C00FFB2002F30D05FF028081FFA88F8B8F1A7
:102C8C00000F0DD0854800680090012100A8FEF7C8
:102C9C00E5F90028F9D000F044F8B8F10108ECE7A8
:102CAC00FFB2142F06D140F2DC5100A8FEF7D6F982
:102CBC000028F8D00020C0B20B2809DAFFB2791E28
:102CCC00714AC0B20A2303FB00225180401CF2E778
:102CDC00A41B75197F1ECBE700F023F8C82100A8B0
:102CEC00FEF7BCF90028F9D00020C0B20B2804DA9A
:102CFC000021654A1170401CF7E70820FFF72AFFF6
:102D0C000920FFF727FF0A20FFF724FF644800681B
:102D1C0050F00100624908606248FEF75DFABDE8B8
:102D2C00F38110B50024E4B20B2C80F2AA80564833
:102D3C00E4B20A2101FB04000078012872D1524848
:102D4C00E4B20A2101FB0400B0F90200002804D10E
:102D5C002000C0B2FFF72DFF5CE04B48E4B20A2123
:102D6C0001FB0400B0F90200142804D12000C0B209
:102D7C00FFF7F0FE4EE04448E4B20A2101FB0400E8
:102D8C008088401E4049E4B20A2202FB041188806C
:102D9C003D48E4B20A2101FB04008088002839D1A7
:102DAC003948E4B20A2101FB0400807901281AD1C8
:102DBC002000C0B2FFF7FDFE3348E4B20A2101FB4C
:102DCC000400B0F90200D0F114002F49E4B20A2239
:102DDC0002FB0411888000202B49E4B20A2202FB7A
:102DEC000411887116E02000C0B2FFF7B3FE26482C
:102DFC00E4B20A2101FB040040882349E4B20A2210
:102E0C0002FB0411888001201F49E4B20A2202FB54
:102E1C000411887101201C49E4B20A2202FB04113E
:102E2C0008702CE01848E4B20A2101FB0400007879
:102E3C00022824D11448E4B20A2101FB0400808842
:102E4C00401E1149E4B20A2202FB041188800E488C
:102E5C00E4B20A2101FB0400808800280FD1200075
:102E6C00C0B2FFF7D2FE0848E4B20A2101FB04000D
:102E7C0040880549E4B20A2202FB04118880641CD4
:102E8C0051E710BD0000000080010020300C0E4006
:102E9C00340C0E4010040020380C0E40B81A0020E0
:102EAC00A41A00202005002062F30F2262F31F42B7
:102EBC00401810F0030308D0C91A1FD3DB0748BF12
:102ECC0000F8012D28BF20F8022D130030B4144651
:102EDC001546103928BF20E93C00FAD8490728BF0D
:102EEC0020E90C0048BF40F8042D890028BF20F8C9
:102EFC00022D48BF00F8012D30BC7047C91818BF0F
:102F0C0000F8012DCB0728BF00F8012D70470A0DE2
:102F1C000749086808B1002070470648C008C0007F
:102F2C0008600549C908C900091A0160704700BF4B
:102F3C00501B00207F1B0020783B002080B5012017
:102F4C0000F094FCDFF86C18002000F0A4FCDFF813
:102F5C006818402000F09FFC0120FFF7FBFD0020CB
:102F6C00DFF858180870B320DFF85018C87010201C
:102F7C00DFF8481808710120DFF84018487101206B
:102F8C00DFF8381888710020DFF83018C87120205D
:102F9C00DFF8281808723220DFF820184872032056
:102FAC00DFF818188872002000F026FD00280DD0DC
:102FBC000120FFF7FEFD0520FFF7CCFD00F0EDFD35
:102FCC000FF2CD10DFF8F817086008E07D2107201C
:102FDC00FFF72CFE0FF69100DFF8E417086001BD37
:102FEC0080B5DFF8DC070068804701BD80B5DFF8ED
:102FFC00D4070088401CDFF8CC170880DFF8C40722
:10300C000088502820D10020DFF8B8170880DFF89E
:10301C00B807DFF8B817097830F81110012000F064
:10302C006EFF012000F096FFDFF8A0070078401C2F
:10303C00DFF898170870DFF894070078C02803D1E0
:10304C000020DFF88817087001BD80B5DFF8800715
:10305C000088401CDFF878170880DFF874070088B8
:10306C00502820D10020DFF868170880DFF86407AB
:10307C00DFF86417097830F81110012000F03FFFD9
:10308C00012000F067FFDFF850070078401CDFF8E4
:10309C0048170870DFF8400700782D2803D100206E
:1030AC00DFF83417087001BD80B5DFF830070088F1
:1030BC00401CDFF828170880DFF820070088B0F5DF
:1030CC00FA7F2FD1DFF81807007801282AD1DFF812
:1030DC0010070078002804D10120DFF804170870CD
:1030EC0003E00020DFF8F81608700020DFF8EC167B
:1030FC0008800020FFF72EFD0120FFF72BFD02209A
:10310C00FFF728FD0320FFF725FD0420FFF751FDF5
:10311C000520FFF74EFD0620FFF74BFD0720FFF7BC
:10312C0048FD34E0DFF8B4060088B0F5FA7F2ED104
:10313C00DFF8AC060078002829D1DFF8A406007867
:10314C00002804D10120DFF89816087003E0002055
:10315C00DFF88C1608700020DFF88016088000203D
:10316C00FFF727FD0120FFF724FD0220FFF721FDCB
:10317C000320FFF71EFD0420FFF7ECFC0520FFF7F2
:10318C00E9FC0620FFF7E6FC0720FFF7E3FC01BD96
:10319C0010B586B003A8DFF84C160CC90CC0083962
:1031AC000838DFF844060078012840F07882DFF810
:1031BC003C060088401CDFF834160880DFF82C062B
:1031CC00008842F23411884204D14FF4FA50DFF8EF
:1031DC001C160880DFF818060068401CDFF8101673
:1031EC000860DFF810060078401CDFF8081608703D
:1031FC000120C0B2082858DADFF8F0150988C0B2EF
:10320C004FF47A7202FB00F291424CD1142100204F
:10321C0000F05DFBDFF8E015002000F03CFBDFF870
:10322C00DC150C2000F037FBDFF88C15402000F08B
:10323C0032FBDFF8C8050078401EDFF8C0150870B7
:10324C00DFF8B80500782F282CDA0120DFF8B0154C
:10325C0008700020DFF898150860012000F006FBCC
:10326C00DFF8A015002000F016FBDFF89C150A20F3
:10327C0000F011FB3020DFF8901508703920DFF8D2
:10328C00881548700020DFF880158870002000F049
:10329C0044FF012000F041FF022000F03EFF03201C
:1032AC0000F03BFF01E0401CA3E7DFF85405007879
:1032BC00012840F01281DFF83C050078642840F0CA
:1032CC000C810020DFF82C1508700420FFF771FC2E
:1032DC000720FFF76EFC1421402000F0F8FADFF80D
:1032EC002C050088ADF80000B4A1DFF824050068B7
:1032FC0000784030C0B200F0CEFA002000F004FF9D
:10330C00002836D0002000F008FFDFF80405006824
:10331C00007800281FD1DFF8FC040078401CDFF88F
:10332C00F41408700420FFF715FCDFF8EC14DFF838
:10333C00E4040078FDF7C2FE0221132000F0C7FA66
:10334C00DFF8D8140E2000F0A6FADFF8CC14122007
:10335C0000F0A1FA02E00720FFF7FCFB142140204B
:10336C0000F0B5FADFF8A8040068401CDFF8A014E0
:10337C000860012000F0C8FE002836D0012000F0C3
:10338C00CCFEDFF88C040068007806281FD1DFF82B
:10339C0084040078401CDFF87C1408700420FFF7CC
:1033AC00D9FBDFF87414DFF86C040078FDF786FEA7
:1033BC000221132000F08BFADFF860140E2000F0CD
:1033CC006AFADFF85414122000F065FA02E00720C4
:1033DC00FFF7C0FB1421402000F079FADFF830042D
:1033EC000068401CDFF828140860022000F08CFEF6
:1033FC00002836D0022000F090FEDFF8140400689C
:10340C0000780D281FD1DFF80C040078401CDFF881
:10341C00041408700420FFF79DFBDFF8FC13DFF8A1
:10342C00F4030078FDF74AFE0221132000F04FFA56
:10343C00DFF8E8130E2000F02EFADFF8DC13122070
:10344C0000F029FA02E00720FFF784FB142140204A
:10345C0000F03DFADFF8B8030068401CDFF8B01349
:10346C000860032000F050FE002836D0032000F046
:10347C0054FEDFF89C030068007813281FD1DFF896
:10348C0094030078401CDFF88C1308700420FFF7BD
:10349C0061FBDFF88413DFF87C030078FDF70EFE88
:1034AC000221132000F013FADFF870130E2000F045
:1034BC00F2F9DFF86413122000F0EDF902E00720B6
:1034CC00FFF748FB1421402000F001FADFF840031D
:1034DC000068401CDFF8381308600120C0B20B28CC
:1034EC001CDAC3490968C0B24FF47A7202FB00F2CD
:1034FC00914211D1C248007801280CD104210A2034
:10350C0000F0E5F9C0490A2000F0C5F9BE48407842
:10351C00401EBD49487001E0401CDFE7B44800681C
:10352C0042F21071884216D10020B549087014215E
:10353C00402000F0CCF9BA49402000F0ACF904204E
:10354C00FFF737FB0720FFF734FB0220FFF731FBB7
:10355C000520FFF7FFFAA648006842F6ED418842C5
:10356C0036D342F2A670A2490860AE480078AD4945
:10357C00497811EB0010B0F54C70A64909788842D7
:10358C0007DAA949002000F086F90120A749087044
:10359C001AE0A0480078A3490978A24A527812EBA5
:1035AC000111B1F54C7188420ADAA149002000F0F2
:1035BC0072F901209F49087006E000BF4D00000021
:1035CC009D49002000F067F99C49402000F063F908
:1035DC00002000F099FD002851D08948007800287F
:1035EC004DD1002000F099FD012000F03FF99448E6
:1035FC008749086000207E49086000207B490880CC
:10360C0035207E49087031207F49087030207E4972
:10361C00487000207449087000207649087000201A
:10362C007C4908700020814908700020814908708D
:10363C00002084490870012000F08FFC0020FFF767
:10364C00B8FA0120FFF7B5FA0220FFF7B2FA03200F
:10365C00FFF7AFFA0420FFF7ACFA0520FFF7A9FA41
:10366C000620FFF7A6FA0720FFF7A3FA76490020F9
:10367C0000F011F900F091FA0820744908706B48B9
:10368C000078012803D1FFF7B1FCFFF70DFD694865
:10369C000078012803D1FFF7D8FCFFF705FD5D4842
:1036AC0000786B4908706A48007869494978884203
:1036BC0002D0674800F089FA56480078644948708F
:1036CC000520FFF776FA00F09BFA00286FD06148CE
:1036DC000078012822D10024E4B2082C67DA5E4875
:1036EC00E4B2205C102190FBF1F0C0B2FDF7D2FCEB
:1036FC004C49E4B201F814005748E4B2215C1022A2
:10370C0091FBF2F000FB1210C0B2FDF7C3FC45496F
:10371C00E4B211EB44014870641CDDE74D480078BD
:10372C00022844D1494800784B49497888423ED018
:10373C00494840784549087044480078002806D02C
:10374C0001282DD002281CD0082822D02CE00420DF
:10375C00FFF72FFA0220FFF7FDF90120224908702C
:10376C003848007800280BD101203649087001A890
:10377C003A490CC90CC00839083801A800F025FAE0
:10378C0015E00420FFF715FAFA210220FFF74EFA94
:10379C000DE00220FFF70DFA0420FFF7DBF906E03D
:1037AC002F48FDF719FD02E02E48FDF715FD06B078
:1037BC0010BD00005C550800CC550800E81900202D
:1037CC00441B0020581B0020000000206D1B002013
:1037DC005A1B0020F00100206E1B00205C1B0020F7
:1037EC006F1B0020D4550800731B00205E1B0020AB
:1037FC00481B0020711B0020345508005A0600207D
:10380C00721B00206855080054060020763808000A
:10381C0050060020701B00204C1B0020DC550800BB
:10382C0074550800E005002038540800741B002073
:10383C0050540800751B0020685408008054080080
:10384C00F4020020761B0020E85408005C060020DF
:10385C0030060020641B0020001A0020E4550800EC
:10386C00FC5408001055080070474D0010B50400BA
:10387C00544844700023534A02213C2000F0FBFDC5
:10388C0051480068002805D500205049884201D2D3
:10389C00401CFAE710BD70B504000D0054F0800018
:1038AC00C0B2FFF7E3FF012006002878002806D0FD
:1038BC0028784749F6B270546D1C761CF5E7002346
:1038CC00434AF6B231003C2000F0D5FD70BD70B516
:1038DC0004000D0054F08000C0B2FFF7C7FF0020B9
:1038EC000600F6B2EDB2AE4206D220203949F6B24D
:1038FC0071184870761CF4E70023364AEDB2691C47
:10390C003C2000F0B8FD70BD00B589B000A832496C
:10391C000CC90CC00839083802A830491622FDF72A
:10392C000FFC0FF2D1002E4908604FF400702D49A6
:10393C0008602D4800682D49086028212B48FDF7A8
:10394C008DFB0028F9D0012200213C2000F028FD3D
:10395C00012300AA06213C2000F08DFD22480068BE
:10396C0022490860C8212148FDF778FB0028F9D0CE
:10397C0000220C213C2000F013FD0820FFF7EAF890
:10398C000920FFF7E7F80A20FFF7E4F801224021AD
:10399C003C2000F005FD002302AA14213C2000F07D
:1039AC006AFD11480068114908601148006850F020
:1039BC0008000F49086009B000BD80B508480068D0
:1039CC00804701BD561B0020A01A0020A0860100D4
:1039DC00B8030020E4030020C45508000854080074
:1039EC00981A0020300E0E40B81A00209C1A0020A5
:1039FC00A41A00207047000030B58BB0040004A856
:103A0C0092490CC90CC008390838914800788DF8D7
:103A1C0012008F4880788DF8140000A88D490CC9CD
:103A2C000CC0083908388A4800788DF8020088489C
:103A3C00C0788DF80300864800798DF8040084481E
:103A4C0040798DF80500824880798DF8060002A82F
:103A5C0081490CC90CC0083908387D4800788DF8AC
:103A6C000A007B48C0798DF80B007948007A8DF8F4
:103A7C000C0008A879490CC90CC0083908387448DE
:103A8C0000788DF822007248407A8DF8230006A841
:103A9C0073490CC90CC0083908386D4800788DF88A
:103AAC001A006B48807A8DF81B0000256D48006861
:103ABC0030F002006B490860E4B2002C05D1002004
:103ACC008DF8130000206249487004A8FCF70DFF24
:103ADC008DF8150004A8FCF7A1FD4FF47A71422073
:103AEC00FCF762FE4019050000A8FCF7FEFE8DF8FD
:103AFC00070000A8FCF792FD4FF47A715120FCF7F7
:103B0C0053FE4019050002A8FCF7EFFE8DF80D00DE
:103B1C0002A8FCF783FD4FF47A714320FCF744FEB6
:103B2C004019050008A8FCF7E0FE8DF8240008A851
:103B3C00FCF774FD4FF47A714520FCF735FE401903
:103B4C00050006A8FCF7D1FE8DF81C0006A8FCF7B2
:103B5C0065FD4FF47A714720FCF726FE40190500ED
:103B6C004148FDF739FBEDB2002D0AD03F48006803
:103B7C0030F010003D4908603D48FDF72DFB00205A
:103B8C0009E03C48FDF728FB3648006850F400304B
:103B9C003449086001200BB030BD80B500A836490F
:103BAC000A6802602A4800788DF8020000A8FCF729
:103BBC009CFE8DF803002B48006850F480202949A6
:103BCC00086000A8FCF7A3FE02BD10B50400204855
:103BDC0000782A4988700020C0B2082807DAC0B2E1
:103BEC00015D264AC0B28218D170401CF4E723480C
:103BFC00FCF77BFE2149C8722048FCF788FE10BDFB
:103C0C0010B51F48006800281DD01D4800680068CA
:103C1C001C4908601A48006800791B49087018484C
:103C2C00006800F2050004000020C0B2082806DA83
:103C3C00C0B2015D154AC0B28154401CF5E7FCF7D7
:103C4C00CAFE012000E0002010BD000094550800C1
:103C5C00E81900209C550800A4550800AC55080034
:103C6C00B4550800101A00207C050020A01A002072
:103C7C001806002010060020EC5508000406002051
:103C8C00141A0020641A0020641B0020001A002063
:103C9C00DFF8CC02DFF8CC1208600420B2490860CF
:103CAC004FF48070B1490860B148B2490860B2481D
:103CBC000068C007FBD5AF480068B0490843AD4960
:103CCC000860AF48AF490860AB4800688007FBD577
:103CDC004FF40070AC49086042F21100AB49086027
:103CEC00A54800680007FBD542F21200A7490860FE
:103CFC00A14800680007FBD5A548006850F44410A3
:103D0C00A34908609C4800684006FBD5704700201A
:103D1C00A04908600020A049086041F26F709F49DB
:103D2C00086000209E49086003209E490860704787
:103D3C0080B5984800689C490968401A012817D03A
:103D4C009A480068401C994908609948006850F0EE
:103D5C0020009749086097480078C00708D5964816
:103D6C00FDF73AFA91480068FDF756FAFDF746FA66
:103D7C00884800688C4908609048006830F48010CE
:103D8C008E4908608E48006830F004008C49086049
:103D9C008748006850F08040854908608448006876
:103DAC00400001D530BFF9E701BD8648864908605F
:103DBC00864887490860704780B586488649086000
:103DCC00864887490860874887490860874888493A
:103DDC0008600020874908600020874908608748F0
:103DEC00874908605FF040508649086086488749DB
:103DFC0008608748874908607FF0010086490860A1
:103E0C000120864908605FF0F64085490860002073
:103E1C0084490860002084490860002083490860B8
:103E2C00834884490860002083490860834884499A
:103E3C00086084488449086084488549086085483E
:103E4C008549086000208549086000208449086085
:103E5C008448854908600020844908600020844912
:103E6C0008607FF07E40834908608348834908607E
:103E7C004FF4F07082490860724882490860002053
:103E8C008149086000208149086000208049086051
:103E9C0080488149086000208049086000F001F8E2
:103EAC0001BD5FF001107E49086000207D4908606B
:103EBC0003207D49086041F270707C49086041F232
:103ECC0070707B49086042F6E0607A49086042F6FF
:103EDC00E0607949086003207849086040F2DC50C2
:103EEC007749086040F2DC507649086040F6B830FB
:103EFC007549086040F6B83074490860704710B4D2
:103F0C00734B89B2B3FBF1F31A0001280FD1714B3B
:103F1C001B68DB0705D5664B1A605308664C23609B
:103F2C0016E0624B1A605308624C236010E00228C2
:103F3C000ED1684B1B689B0705D5624B1A60530862
:103F4C00624C236004E05E4B1A6053085E4C2360A5
:103F5C0010BC704760490860704760490860704742
:103F6C0073EDFC2710040E4040040E4000040E407C
:103F7C0019F0370020040E4068040E400000370191
:103F8C00013F072028040E4000080E4030040E406C
:103F9C001C040E40B81A0020BC1A002014E000E0EB
:103FAC0018E000E010E000E0C41A0020C01A002065
:103FBC00A01A00207C1A00209C04002070040E40E3
:103FCC0010ED00E00085011054120E40010000A518
:103FDC0050120E4007000384000C0E40F8FFFC7BCF
:103FEC00040C0E40F9D755BF100C0E400628AA4001
:103FFC00140C0E40200C0E40240C0E4000000188C6
:10400C00300C0E40340C0E4000060004500C0E40D8
:10401C00FFF9FFFB540C0E40600C0E40640C0E407C
:10402C00700C0E40800C0E40840C0E408C0C0E401C
:10403C00000001B4A00C0E40A40C0E40E7FFBF0121
:10404C00000E0E4018004000040E0E40E0FFBF01B1
:10405C00100E0E401F004000140E0E40200E0E409D
:10406C00240E0E4000FEBF01300E0E40340E0E40EA
:10407C00500E0E40540E0E401FFEFF01600E0E40FF
:10408C00640E0E40700E0E40800E0E40840E0E40DC
:10409C008C0E0E40E0FF1F00A00E0E40A40E0E4032
:1040AC0000C0084020C0084000C208400CC20840B4
:1040BC0010C2084004C2084008C2084020C2084090
:1040CC002CC2084030C2084024C2084028C2084014
:1040DC00808D5B000CC0084004C0084008C008403C
:1040EC00012110F01F0291408D4A40B2430942F861
:1040FC0023107047012110F01F029140894A40B2F1
:10410C00430942F82310704701008848085C0128D5
:10411C0001D1012000E0002070470021834A815426
:10412C00704738B5002400250020C0B204280DDAF1
:10413C000021804AC0B2815400217B4AC0B2815414
:10414C0000217D4AC0B28154401CEEE70020C0B271
:10415C0004281ADA7949C0B211EB400149780029D8
:10416C0005D17749C0B251F820100C430BE07349CC
:10417C00C0B211EB40014978802904D17049C0B21A
:10418C0051F820100D43401CE1E76E4804606E4866
:10419C0005606E48006804006D48006805000A2040
:1041AC00FFF7A8FF0B20FFF7A5FF0A20FFF798FFEA
:1041BC000B20FFF795FF0FF24D006649086066482B
:1041CC00006850F00200644908606448FDF704F888
:1041DC0031BD80B55F480068804701BD0200D2B296
:1041EC00042A0CDA5548D2B210EB42004078C9B21E
:1041FC00884204D15248D2B250F8220000E000208C
:10420C00704700000020C0B204280ADA4949C0B245
:10421C00415C002903D00FF20D014E4A1160401C85
:10422C00F1E7704770B54E484A4908600026F6B26F
:10423C00042E74DA4B484149F6B211EB4601497829
:10424C0010EB810004003F483C49F6B211EB4601EB
:10425C00497810EB810005003648F6B2305C002836
:10426C005BD041483B49086019214048F6B210EB3D
:10427C008600FCF7F3FE00284FD03048F6B210F859
:10428C001600002811D12068C0432D49F6B251F810
:10429C002610084204D001202749F6B2705414E0CD
:1042AC0000202549F6B270540FE020682449F6B27C
:1042BC0051F82610084204D001201F49F6B2705460
:1042CC0003E000201C49F6B270541B48F6B2305C77
:1042DC001549F6B2715C884214D01748F6B2305CBE
:1042EC001149F6B270541048F6B2305C012809D16D
:1042FC0001200E49F6B270541D4800680C49F6B204
:10430C0041F8260000200B49F6B2705428680C497D
:10431C00F6B251F8261008432860761C87E770BD6A
:10432C0000E100E080E200E0701A0020781A002022
:10433C00C8190020681A0020741A002020060020DA
:10434C0024550800400C0E40400E0E404C0C0E4004
:10435C004C0E0E406C1A0020A41A0020B805002048
:10436C00114208003C0C0E4031420800B8190020E4
:10437C00B81A0020012110F01F029140DFF890279D
:10438C0040B2430942F823107047012110F01F027C
:10439C009140DFF8802740B2430942F82310704760
:1043AC00F8B504000D0016008DF80050DFF8680712
:1043BC000078102801D100205CE000AA0121DFF870
:1043CC005C070068001DFDF7B5FF0700002F50D0FB
:1043DC000020DFF84C17DFF84C27127812015054EC
:1043EC000120DFF83C17DFF83C27127811EB0211A3
:1043FC004860DFF82C07DFF82C17097810EB011058
:10440C000472DFF81C07DFF81C17097810EB011099
:10441C0086720020DFF80817DFF80827127811EBF6
:10442C00021148720020DFF8F816DFF8F82612782F
:10443C0011EB0211C860DFF8EC060078401CDFF8C5
:10444C00E4160870DFF8D0060078401CDFF8C816B8
:10445C000870DFF8D0060078102803D10020DFF8B0
:10446C00C4160870DFF8C0060068002801D500F0FB
:10447C0041F93800F2BD2DE9F04104000D001600A1
:10448C001F00DFF894060078102801D100205DE0B1
:10449C0032002900DFF884060068001DFDF74AFF92
:1044AC008046B8F1000F50D00020DFF87416DFF80A
:1044BC0074261278120150540120DFF86416DFF8CC
:1044CC006426127811EB02114860DFF85406DFF80D
:1044DC005416097810EB01100472DFF84406DFF86B
:1044EC004416097810EB011087720020DFF83016A3
:1044FC00DFF83026127811EB021148720020DFF839
:10450C002016DFF82026127811EB0211C860DFF8B4
:10451C0014060078401CDFF80C160870DFF8F8055C
:10452C000078401CDFF8F0150870DFF8F80500780B
:10453C00102803D10020DFF8EC150870DFF8E8052F
:10454C000068002801D500F0D5F84046BDE8F081A0
:10455C0010B51224DFF8D40500680121A1400843EE
:10456C00DFF8C81508600020DFF8C4150860DFF814
:10457C00C405DFF8A81508600020DFF8A81508703E
:10458C000020DFF8B41508700020DFF88C150870D7
:10459C00DFF8A805DFF89C1508600020DFF89415FB
:1045AC0048600020DFF88C1588600020DFF8841547
:1045BC00C860DFF8680500680068006850F080008B
:1045CC00DFF85815096809680860DFF87405006899
:1045DC00DFF8701508600521DFF86805FCF73EFD73
:1045EC000028F8D0DFF86005DFF830150968096895
:1045FC0008612420DFF82415096809680860002088
:10460C00DFF818150968096848604FF4A170DFF8E5
:10461C000C150968096848624FF63560DFF8FC1420
:10462C00096809688862200040B2FFF7AEFE2000DE
:10463C0040B2FFF79FFE0020DFF810150860002045
:10464C00DFF80C1508600FF2A510DFF808150860EC
:10465C0010BD80B5DFF8FC040068804701BD012067
:10466C00C0B200281DD0DFF8E4140968002918D066
:10467C00DFF8DC1409680978DFF8A02412681268E6
:10468C005163DFF8CC140968491CDFF8C4241160AD
:10469C00DFF8B8140968491EDFF8B0241160401E19
:1046AC00DEE7DFF8A814096800291CD10421DFF823
:1046BC006C24126812689162DFF86414DFF87824B5
:1046CC00127811EB0211897A002912D1DFF84C14FF
:1046DC0009680968096851F00201DFF84024126882
:1046EC001268116005E00421DFF8302412681268AA
:1046FC005162704780B5DFF83804006850F0010053
:10470C00DFF82C140860DFF838040068DFF8341484
:10471C000860DFF81C040078C00709D5DFF8340402
:10472C00006880470121DFF81C04FCF797FCF0E7D8
:10473C0001BD10B5DFF8200400680400DFF81C048C
:10474C0000680440E00508D5DFF8E403006850F089
:10475C008070DFF8DC13086046E0A00731D5DFF885
:10476C00BC030068007B00072BD5DFF8B0030068A2
:10477C000068006BDFF8A413096889680870DFF81B
:10478C009C0300688068401CDFF8901309688860FF
:10479C00DFF8B8030068401EDFF8B0130860DFF8DC
:1047AC00AC03006801281FD1DFF8700300680068B3
:1047BC00006850F00200DFF86413096809680860AB
:1047CC0012E0600708D5DFF854030068007B80070F
:1047DC0002D5FFF744FF07E0DFF85403006850F000
:1047EC000070DFF84C13086010BD000080B5DFF8D6
:1047FC0034030078DFF840130978884200F0968083
:10480C000020DFF818130968096848602420DFF8D5
:10481C000C13096809680860DFF80403DFF8181343
:10482C0009780901085C002832D1BC48006800688E
:10483C004068BB49DFF80023127811EB0211097AAA
:10484C0050EA0140B549096809684860B3480068F6
:10485C0040684068BD490860B0480068406808304E
:10486C00BB490860FFF7FBFE0221AC4800684068BA
:10487C000068FDF745FEA9480068C06850F00600C6
:10488C00A6490968C8600FF2A900B249086044E063
:10489C00A348A94909780901085C01283DD19F4822
:1048AC000068006840689D490968096848609C4830
:1048BC00A149097810EB01104068A4490860984898
:1048CC009D49097810EB0110C0689449096888600B
:1048DC009E48006801280AD190480068006800686A
:1048EC0050F003008D4909680968086009E08B489D
:1048FC0000680068006850F0010088490968096880
:10490C00086086480068C06850F008008349096850
:10491C00C8600FF2F1008F4908608548006810F0FC
:10492C007F4F03D00FF255108A49086001BD00007B
:10493C0080B57B488049097810EB0110807A0028FB
:10494C0018D182480068002826D174480068006895
:10495C00006A400720D5714800680068006AC007EB
:10496C001AD56E480068C06830F006006B490968BB
:10497C00C86011E07548006800280DD167480068D0
:10498C000068006A400707D564480068C06830F0CA
:10499C00020062490968C86060480068007B8007B3
:1049AC0025D404215D48006840680068FDF7A8FD27
:1049BC005A480068001DFDF73AFD5D480068400844
:1049CC0040005B4908606648624908605A480078B4
:1049DC00401C5949087050480078401E4E490870D8
:1049EC0055480078102802D10020534908705048CF
:1049FC00006810F07F4F03D00FF28100554908601A
:104A0C0001BD00005148006800282DD143480068C2
:104A1C000068006A800727D5404800680068006A73
:104A2C00C00721D53D480068C06830F008003B49FC
:104A3C000968C8603E480068400840003C4908606E
:104A4C004748444908603C480078401C3A49087083
:104A5C0031480078401E30490870374800781028DB
:104A6C0002D10020344908703148006810F07F4FA3
:104A7C0003D00FF2090037490860704780B52C4805
:104A8C000068C0013AD526482649097810EB011078
:104A9C00407A401C2249234A127811EB02114872C9
:104AAC001F482049097810EB0110407A032821D1C6
:104ABC0021480078401C2049087017480078401E97
:104ACC00154908701C480078102802D100201A499A
:104ADC00087012480068007B80070BD506210F4830
:104AEC00006840680068FDF70BFD0C480068001D6D
:104AFC00FDF79DFC002009490968C8600C48006856
:104B0C000002000A0A49086015481249086001BDF4
:104B1C0000E100E080E200E06B1B0020D41A0020D2
:104B2C0084150020691B0020A01A002010040E40E0
:104B3C00D01A0020D81900206A1B00200040084021
:104B4C00B81A0020CC1A00201D1D0200D81A002013
:104B5C00DC1A0020C81A00202C40084020400840D5
:104B6C00F9470800012110F01F029140604A40B241
:104B7C00430942F823107047012110F01F029140A5
:104B8C005C4A40B2430942F82310704710B588B014
:104B9C0000A859492022FCF7E3FA0020C0B20828EB
:104BAC0009DA00A9C0B251F82010544AC0B242F838
:104BBC002010401CF2E70024E4B21D2C09DA20007E
:104BCC0040B2FFF7CFFF200040B2FFF7D5FF641CC7
:104BDC00F2E708B010BD80B50020FDF7EAFF032016
:104BEC00FDF7E7FF0120FDF7E4FF0620FDF7E1FFED
:104BFC000220FDF7DEFF0420FDF7DBFF0520FDF7AB
:104C0C00D8FF0720FDF7A6FFFEE73D480068401CD3
:104C1C003B4908603B48006830F0804039490860E7
:104C2C0039480088401E38490880374800880028D9
:104C3C0008D14FF47A703449088034480068401C1D
:104C4C00324908607047F8B531480068040014F424
:104C5C0000300500002D1CD00027FFB2042F18DAFD
:104C6C0000213800C0B2FFF7B9FA060035420ED069
:104C7C002848006830432749086001202649FFB2C4
:104C8C0078541F4800682549FFB241F827007F1C63
:104C9C00E3E70A20FFF770FFF1BDF8B52048006884
:104CAC00040014F007000500002D1CD00027FFB2F3
:104CBC00042F18DA80213800C0B2FFF78FFA0600F3
:104CCC0035420ED017480068304316490860012061
:104CDC001149FFB278540A4800681049FFB241F8F4
:104CEC0027007F1CE3E74FF4006002490860F1BD28
:104CFC0080E100E080E200E02053080000E400E0E6
:104D0C00B81A0020A01A002058060020BC1A002057
:104D1C004C0C0E40440C0E40681A0020B8190020B0
:104D2C004C0E0E40440E0E40816807E0026811687C
:104D3C00536889185B18C36008320260C2689142DC
:104D4C00F4D04A1C82600878704738B504460D468A
:104D5C00A068E168884212D120686168884208BF67
:104D6C0000F0C3F82068227C016802B14944A160BC
:104D7C0042685218E260083020609142ECD0A06882
:104D8C00401CA06000F8015D31BD2DE9F0418AB0F6
:104D9C0000F1080105910268520801EBC20106916D
:104DAC000021079108910168490800EBC101083105
:104DBC000091017901F001018DF810104068009903
:104DCC00400801EBC000019000200290039084E0A9
:104DDC0005A8FFF7A9FF044614F0030603D105A8A4
:104DEC00FFF7A2FFC61C25090F2D1BD105A8FFF745
:104DFC009BFF00F10F0515E005980168081805994F
:104E0C00079049680818089005980830059007988D
:104E1C0008998842F0D0401C079010F8011D00A89A
:104E2C00FFF793FF761EF2D1002D51D005A8FFF7A6
:104E3C007BFF0646A00800F00300032804BF05A86A
:104E4C00FFF772FFDDF800800299039F06EB00204C
:104E5C0008E0A8F10808801A58F8081C58F8042C27
:104E6C005718394658F8082C8A1A8242F1D30C1A72
:104E7C00AE1C2DD0BC4206D158F8044B58F8040B8C
:104E8C000719BC42F8D00298039914F8015B8842C8
:104E9C0017D100980199884208BF00F026F80098B5
:104EAC0000689DF81010029009B1484402900099D6
:104EBC0002984968009A09180832039100928842B6
:104ECC00E7D00298401C0290761E00F8015DD1D10B
:104EDC000298039988427FF47BAF01980099814234
:104EEC007FF476AF0AB0BDE8F081012000F000B885
:104EFC0080B5C046C046024A11001820ABBEFBE785
:104F0C002600020000B587B000A826491722FCF73E
:104F1C0017F9002080B2B0F5097F05D20021204A94
:104F2C0080B28154401CF5E71D481F4908601C489D
:104F3C001E49086003201E4908701E481C49486021
:104F4C004FF480701A4988601548194988611648D1
:104F5C001749C8614FF40970154908840020144999
:104F6C0008730020124948731148FCF7DDFC124904
:104F7C0008600FF229001149086000A8FCF72CF911
:104F8C000F48006850F020000D49086007B000BDC4
:104F9C0080B50A480068804701BD000070470000DA
:104FAC0060120020205408003C1B0020401B0020F5
:104FBC0094190020000C0E40381B0020341B0020DC
:104FCC00A41A002080B52948006850F000402749F9
:104FDC000860FEF7EAFEFEF7EFFEFEF759FEFFF75C
:104FEC00D5FDFEF794FEFDF74DFAFDF7D7FBFCF768
:104FFC00A5F9FCF755FDFFF7ABFAFEF785FCFDF7BD
:10500C002BFEFFF78EF8FBF73BFAFFF77BFFFDF764
:10501C0095FFFCF759F91548006840004008134902
:10502C000860134813490860FDF77BFEFFF7D1F8C1
:10503C00FDF732FCFCF7B3FDFFF70BFBFDF75BFA5A
:10504C00FCF7DAF9FEF7B9FCFBF7E2FAFFF7A0FF81
:10505C00FDF7C6FF5FF0004007490860FEF768FEE9
:10506C005FF0004005490860DBE700BFA01A002094
:10507C00010000A550120E40300C0E40340C0E40B6
:10508C000A0D496E697469616C697A6174696F6E35
:10509C0020636F6D706C6574652E2054797065207B
:1050AC00656E2B63303020666F72206465627567A5
:1050BC00206D656E752E20204661696C65642074C8
:1050CC0061736B733A0A0D004C45440000000000FC
:1050DC000000425554544F4E0000000044454255C8
:1050EC004700000000004C4344000000000000009A
:1050FC00414E54000000000000005344000000002A
:10510C00000000000A0D4E6F20737061636520690A
:10511C006E20416E7451756575654170706C696374
:10512C006174696F6E4D6573736167650A0D00007C
:10513C000A0D4E6F20737061636520696E20416E9D
:10514C007451756575654F7574676F696E674D65DC
:10515C0073736167650A0D0010B5074979441831FE
:10516C00064C7C44163404E00A68081D5118884724
:10517C000146A142F8D110BD700100009801000059
:10518C00416E7454783A206D736720616C7265615E
:10519C00647920696E2070726F67726573730A0D83
:1051AC000000000053686F772064656275672063A8
:1051BC006F6D6D616E64206C6973742020202020EB
:1051CC002020202000000000546F67676C65204C85
:1051DC00454420746573742020202020202020203A
:1051EC00202020202020202000000000546F676722
:1051FC006C652073797374656D2074696D696E6765
:10520C00207761726E696E672020202000000000FC
:10521C0044756D6D79332020202020202020202003
:10522C002020202020202020202020202020202072
:10523C000000000044756D6D793420202020202062
:10524C002020202020202020202020202020202052
:10525C00202020200000000044756D6D7935202041
:10526C002020202020202020202020202020202032
:10527C0020202020202020200000000044756D6D8F
:10528C0079362020202020202020202020202020A3
:10529C002020202020202020202020200000000082
:1052AC0044756D6D7937202020202020202020206F
:1052BC0020202020202020202020202020202020E2
:1052CC00000000000A0D53797374656D2074696DCC
:1052DC00652076696F6C6174696F6E207265706F92
:1052EC007274696E67200000CFBEFFFF18150000B6
:1052FC00600600200000000093FAFFFF020000008F
:10530C0002000000E00200002B030000000000205F
:10531C005D060000F000F0F040F0F0F0F0F05050BE
:10532C00503030F0F0F020F020F0004040F0F0F081
:10533C00F01000000A0D5541525420636F756E74C5
:10534C006572206F7574206F662073796E630A0D19
:10535C00000000000D0A414E54206578706563749E
:10536C006564206D7367206661696C0A0D0000002E
:10537C000A0A0D417661696C61626C6520636F6D20
:10538C006D616E64733A0A0D0000000000F00CF8B9
:10539C00002801D0FFF7E0FE0020C046C046FFF712
:1053AC0011FE00F00BF800000249034801600120D7
:1053BC00704700BF0000080008ED00E000F000B8E6
:1053CC0007463846FFF794FDFBE70000416E745228
:1053DC00783A206D657373616765206661696C65E9
:1053EC00640A0D00416E7454783A2053454E207473
:1053FC00696D656F75740A0D0000000052415A4FBB
:10540C00522053414D3355322041534349492020BA
:10541C0020000000536443617264207461736B203C
:10542C0064697361626C65640A0D0000596F7520C4
:10543C00617265207468652077696E6E65722021D3
:10544C0000000000596F752061726520746865203A
:10545C006C6F73657220212000000000447261772C
:10546C00212020202020202020202020202020202F
:10547C000000000054727920616761696E206279C6
:10548C00204230202020202020000000416E745249
:10549C00783A2074696D656F75740A0D0000000010
:1054AC00416E7454783A204E6F20746F6B656E0A9F
:1054BC000D000000416E7454783A204E6F20535901
:1054CC004E430A0D000000004368616E6E656C204F
:1054DC00636C6F7365640A0D00000000576169749A
:1054EC0020666F72206120706C617965722E2E00BF
:1054FC005365617263682074696D656F75740D0A0C
:10550C0000000000556E6578706563746564204515
:10551C0076656E740D0A00000000020001000000A8
:10552C000200000004000000436C6F636B20446FAA
:10553C00776E3A20207300000A0D44756D6D792149
:10554C000A0A0D000A0D4C65642054657374200022
:10555C0042656174204D6F6C65202100506C61793F
:10556C0065723220543A000054494D45204F555431
:10557C0021000000C046C046C046C046FFF706FFEB
:10558C00024D003E0000000003420010000000002D
:10559C000551000000000000034300000000000063
:1055AC00024500000000000002470000000000005F
:1055BC004E4F4E4500000000383914725E6D0000ED
:1055CC00506C6179657232000123456789ABCDEF70
:1055DC004E756D3A000000000023456789ABCDEF96
:1055EC00014B000010034A024A020B0412B9026379
:1055FC000F030E80040B026F030B021C10010F0330
:10560C006F022106F004070F03B9024A0236213853
:10561C00C11CA1365001B90292262120411A4168C1
:10562C0030010F03923052923AF107282102215691
:10563C005292082102128102614632B980C11A418C
:10564C00BA215EF10D346128216E32B97AF15364BE
:10565C00100101001402F00253010180000AF31939
:10566C000000C6F50F10F1010EF10132101100000F
:10567C004C656E677468206D69736D617463680A3C
:10568C000D84300B436F6D6D616E64206572726FAB
:10569C00721210090000556E657870656374651799
:1056AC00B00476656E740A0D1410376D65737361F2
:1056BC0067650A0D0A0A0D2A2A2A2052415A4F52AE
:1056CC002053414D335532204153434949204C43DB
:1056DC004420444556454C4F504D454E5420424F66
:1056EC00415244202D300B0A0D44656275672072BF
:1056FC00656164796F1007060D13130D06000D1309
:10570C0004120D0C111223130D0412130140010D80
:10571C000D001323060605212D210921291306004E
:10572C001E12060B102500000A0D232323206E5297
:10573C004635313432322050726F6772616D6D694B
:10574C006E67204D6F64653A206E6F204186100C99
:10575C0066756E6374696F6E616C6974792034421E
:10576C0023F11007B051080039140800D40812F1C5
:10577C000812F80810070D1608001C520800D71064
:10578C0052400852640852880862AC20F219000199
:10579C00F11B2C63002031120404120104120804C2
:1057AC0015C9293D4300101742080B241C6661697A
:1057BC006C65642E20486F737420494F7320736599
:1057CC007420746F2048695A2E0D0A246406547292
:1057DC00616E736D6974C034052074696D656F7585
:1057EC00DE240200000D0ACB690E1404746F6F20C6
:1057FC006C6F40111515E7112045EB2001316D73CD
:10580C0037255A240376696F6C614E223AA620170D
:10581C000044656661756C74204368616E6E656CDE
:10582C0020526573706F6E73651D257C5263182052
:10583C0006756E61737369676E181403496E69742B
:10584C00698D227A50112530012E2E2E4C4B0A0ACE
:10585C002548027461736B99416474014C4544C4CE
:10586C009A7343500F53535020506572697068659A
:10587C0072616C7320521A1001496E765E2364209B
:10588C0020D007617474656D70740D0A90618EA1DF
:10589C0014153BC00175702028D003636C6F7365C1
:1058AC001430016F7065C84004427574746F6EAF2C
:1058BC006196620A7D4663531D2C03D30078015216
:1058CC00008C4404666C6167733A887001094E0061
:1058DC0001434F4B145C024641494C9B032280020E
:1058EC003002656E2B633C2002610000A528324E0D
:1058FC00D73002004F464609100D08200800E80377
:0F590C000000F40200203130000C00013500FFD4
:040000050008558119
:00000001FF
